:100000000C9462000C948A000C948A000C948A0070
:100010000C948A000C948A000C948A000C948A0038
:100020000C948A000C948A000C948A000C948A0028
:100030000C948A000C948A000C948A000C948A0018
:100040000C946B050C948A000C9439050C941305E0
:100050000C948A000C948A000C948A000C948A00F8
:100060000C948A000C948A000000000024002700F1
:100070002A0000000000250028002B0000000000DE
:1000800023002600290004040404040404040202DA
:100090000202020203030303030301020408102007
:1000A0004080010204081020010204081020000012
:1000B0000008000201000003040700000000000027
:1000C0000000B50511241FBECFEFD8E0DEBFCDBFC5
:1000D00011E0A0E0B1E0E0EBF3E102C005900D9289
:1000E000A835B107D9F722E0A8E5B1E001C01D921B
:1000F000AA31B207E1F710E0C2E6D0E004C02197D0
:10010000FE010E94D009C136D107C9F70E94FF0540
:100110000C94D6090C940000AF92BF92CF92DF925C
:10012000EF92FF920F931F93CF93DF936C017B01AC
:100130008B01040F151FEB015E01AE18BF08C0173D
:10014000D10759F06991D601ED91FC910190F081B0
:10015000E02DC6010995892B79F7C501DF91CF9173
:100160001F910F91FF90EF90DF90CF90BF90AF90D5
:100170000895FC01538D448D252F30E0842F90E0AD
:10018000821B930B541710F0CF9608950197089592
:10019000FC01918D828D981761F0A28DAE0FBF2F5B
:1001A000B11D5D968C91928D9F5F9F73928F90E0B1
:1001B00008958FEF9FEF0895FC01918D828D981720
:1001C00031F0828DE80FF11D858D90E008958FEF5D
:1001D0009FEF0895FC01918D228D892F90E0805C26
:1001E0009F4F821B91098F739927089585E691E0AF
:1001F0000E94EA0021E0892B09F420E0822F089573
:1002000080E090E0892B29F00E94F60081110C9487
:1002100000000895FC01A48DA80FB92FB11DA35AA9
:10022000BF4F2C91848D90E001968F739927848F16
:10023000A689B7892C93A089B1898C918370806439
:100240008C93938D848D981306C00288F389E02DDA
:1002500080818F7D80830895EF92FF920F931F938B
:10026000CF93DF93EC0181E0888F9B8D8C8D981369
:100270001AC0E889F989808185FF15C09FB7F89475
:10028000EE89FF896083E889F989808183708064C1
:1002900080839FBF81E090E0DF91CF911F910F910C
:1002A000FF90EF900895F62E0B8D10E00F5F1F4F1B
:1002B0000F731127E02E8C8D8E110CC00FB607FC2A
:1002C000FACFE889F989808185FFF5CFCE010E94B8
:1002D0000A01F1CFEB8DEC0FFD2FF11DE35AFF4F1B
:1002E000F0829FB7F8940B8FEA89FB898081806246
:1002F000CFCFCF93DF93EC01888D8823B9F0AA8903
:10030000BB89E889F9898C9185FD03C0808186FDD0
:100310000DC00FB607FCF7CF8C9185FFF2CF80811F
:1003200085FFEDCFCE010E940A01E9CFDF91CF9189
:100330000895833081F028F4813099F08230A9F05B
:1003400008958730A9F08830C9F08430B1F48091E5
:1003500080008F7D03C0809180008F778093800024
:10036000089584B58F7784BD089584B58F7DFBCFC4
:100370008091B0008F778093B00008958091B00095
:100380008F7DF9CF1F93CF93DF93282F30E0F901B2
:10039000E255FF4F8491F901E656FF4FD491F901E0
:1003A000EA57FF4FC491CC23A9F0162F81110E9468
:1003B0009901EC2FF0E0EE0FFF1FEE58FF4FA591D3
:1003C000B4918FB7F894EC91111108C0D095DE2349
:1003D000DC938FBFDF91CF911F910895DE2BF8CF73
:1003E000CF93DF9390E0FC01E656FF4F24918A57AC
:1003F0009F4FFC0184918823D1F090E0880F991FD2
:10040000FC01E859FF4FA591B491FC01EE58FF4F54
:10041000C591D49161110EC09FB7F8948C91E22FD1
:10042000E0958E238C932881E223E8839FBFDF91A0
:10043000CF9108958FB7F894EC91E22BEC938FBF96
:10044000F6CF3FB7F89480915D0190915E01A09145
:100450005F01B091600126B5A89B05C02F3F19F040
:100460000196A11DB11D3FBFBA2FA92F982F882734
:10047000BC01CD01620F711D811D911D42E0660F0F
:10048000771F881F991F4A95D1F708958F929F92E1
:10049000AF92BF92CF92DF92EF92FF920E94210221
:1004A0004B015C0184E6C82ED12CE12CF12C0E947A
:1004B0002102681979098A099B09683E7340810500
:1004C0009105A8F321E0C21AD108E108F10888EEED
:1004D000880E83E0981EA11CB11CC114D104E10454
:1004E000F10429F7FF90EF90DF90CF90BF90AF908D
:1004F0009F908F900895089590E080E00895FB010B
:1005000001900020E9F73197AF01461B570BDC0142
:10051000ED91FC910280F381E02D09948F929F92DE
:10052000AF92BF92EF92FF920F931F93CF93DF93FF
:10053000CDB7DEB7A1970FB6F894DEBF0FBECDBF23
:100540007C01FA01CB0119A2223008F42AE08E01C5
:100550000F5D1F4F822E912CB12CA12CBF01A50144
:1005600094010E94AE09F901CA016A300CF5605D80
:10057000D8016E938D01232B242B252B79F790E046
:1005800080E0109721F0BD01C7010E947F02A19673
:100590000FB6F894DEBF0FBECDBFDF91CF911F9194
:1005A0000F91FF90EF90BF90AF909F908F90089524
:1005B000695CDECF2F923F924F925F926F927F9253
:1005C0008F929F92AF92BF92CF92DF92EF92FF9263
:1005D0001F93CF93DF93EC016A017B01722EAB0175
:1005E0009601CB01B6010E94A9096EE171E081116B
:1005F00026C046015701E894B7F82FEF3FEF4FE7C9
:100600005FE7C501B4010E94A90981110CC02FEF59
:100610003FEF4FE75FE7C501B4010E94DF0762E2E9
:1006200071E0181664F02FEF3FEF4FE75FE4C7016A
:10063000B6010E9437091816B4F466E271E0CE01E3
:10064000DF91CF911F91FF90EF90DF90CF90BF90FF
:10065000AF909F908F907F906F905F904F903F9062
:100660002F900C947F022FEF3FEF4FE75FECC70115
:10067000B6010E94DF0787FDE0CF20E030E0A9014E
:10068000C701B6010E94DF07312C212C87FF0DC066
:10069000E881F9810190F081E02D6DE2CE010995AC
:1006A0001C01F7FAF094F7F8F09410E060E070E0C5
:1006B00080E09FE3711641F020E030E040E251E439
:1006C0000E94E4071F5FF6CFA70196010E947307FF
:1006D0002B013C010E9456084B015C012AE0BC0141
:1006E000A401CE010E948E027C01E20CF31C1123B6
:1006F000E1F1C501B4010E9485089B01AC01C30171
:10070000B2010E9472074B015C01E881F9810190FE
:10071000F081E02D6EE2CE010995E80EF91E115030
:1007200020F120E030E040E251E4C501B4010E9434
:100730003C092B013C010E9456084B01B12CA12C15
:100740002AE0B501A401CE010E948E02E80EF91E36
:10075000C501B4010E9485089B01AC01C301B2012F
:100760000E9472074B015C01DACFC701DF91CF9184
:100770001F91FF90EF90DF90CF90BF90AF909F9030
:100780008F907F906F905F904F903F902F90089543
:10079000CF93DF93EC0160E08E810E94C20161E0A3
:1007A0008E810E94C20160E08E810E94C2018BE8AE
:1007B00091E00197F1F7DF91CF910895CF92DF9209
:1007C000EF92FF920F931F93CF93DF936C017C0105
:1007D00087E0E80EF11CD0E0C0E0062F10E0B80181
:1007E0000C2E02C0759567950A94E2F76170F701C7
:1007F00081917F010E94C2012196C430D10579F711
:10080000C601DF91CF911F910F91FF90EF90DF9084
:10081000CF900C94C803CF92DF92EF92FF920F9388
:100820001F93CF93DF93EC01F62E642F8C810E94EF
:10083000C2018D818F3F19F060E00E94C2010F2D2F
:1008400010E08F8584FF25C06E0187E0C80ED11CA3
:10085000F12CE12CB8010E2C02C0759567950A9415
:10086000E2F76170F60181916F010E94C201FFEF12
:10087000EF1AFF0A88E0E816F10461F7CE01DF9174
:10088000CF911F910F91FF90EF90DF90CF900C943C
:10089000C803B80184E0759567958A95E1F7CE01A4
:1008A0000E94DE036F2DCE01DF91CF911F910F913A
:1008B000FF90EF90DF90CF900C94DE0340E0682F24
:1008C00082E092E00C940B0481E00E945E048BE3D2
:1008D0009FE10197F1F70895CF93DF93823029F4D8
:1008E00090911102986090931102809315021092DA
:1008F000160280E48093170280E18093180280E55D
:100900008093190261E0809106020E94F0018091BB
:1009100007028F3F19F061E00E94F00161E08091D1
:1009200008020E94F001C2E0D2E09E012250324053
:100930008091110284FD0BC084E090E0219628177D
:10094000390744F461E08E810E94F001EECF88E027
:1009500090E0F4CF8BE39DE00197F1F760E08091A8
:1009600006020E94C20160E0809108020E94C2015A
:10097000809107028F3F19F060E00E94C2018091D0
:10098000110284FD34C063E082E092E00E94DE0345
:10099000CBE4D6E4CE010197F1F763E082E092E088
:1009A0000E94DE032197F1F763E082E092E00E946B
:1009B000DE0383E592E00197F1F762E082E092E0E6
:1009C0000E94DE038091110280620E945E0484E036
:1009D000809312028CE00E945E040E94640482E014
:1009E0008093130286E0DF91CF910C945E048062C5
:1009F0000E945E048BE496E40197F1F78091110266
:100A000080620E945E0483E592E00197F1F7809195
:100A1000110280620E945E04D5CF41E00E940B0467
:100A200081E090E008951F920F920FB60F9211246B
:100A30002F933F934F935F936F937F938F939F93E6
:100A4000AF93BF93EF93FF9385E691E00E940A0175
:100A5000FF91EF91BF91AF919F918F917F916F9196
:100A60005F914F913F912F910F900FBE0F901F906C
:100A700018951F920F920FB60F9211242F938F93F8
:100A80009F93EF93FF93E0917501F0917601808140
:100A9000E0917B01F0917C0182FD1BC090818091EF
:100AA0007E018F5F8F7320917F01821741F0E0916B
:100AB0007E01F0E0EB59FE4F958F80937E01FF9110
:100AC000EF919F918F912F910F900FBE0F901F90DC
:100AD00018958081F4CF1F920F920FB60F921124B8
:100AE0002F933F938F939F93AF93BF93809159011F
:100AF00090915A01A0915B01B0915C013091580135
:100B000023E0230F2D3758F50196A11DB11D209329
:100B100058018093590190935A01A0935B01B093BF
:100B20005C0180915D0190915E01A0915F01B091A7
:100B300060010196A11DB11D80935D0190935E013E
:100B4000A0935F01B0936001BF91AF919F918F918E
:100B50003F912F910F900FBE0F901F90189526E890
:100B6000230F0296A11DB11DD2CFE5E6F1E013825D
:100B7000128288EE93E0A0E0B0E084839583A683A0
:100B8000B78384E091E09183808385EC90E0958742
:100B9000848784EC90E09787868780EC90E0918B47
:100BA000808B81EC90E0938B828B82EC90E0958B34
:100BB000848B86EC90E0978B868B118E128E138E31
:100BC000148EE2E0F2E01382128286E191E09183DA
:100BD00080838BE084838FEF85838AE0868389E03E
:100BE000878388E0808787E0818786E08287138615
:100BF000148615861686178681E00C946C0478940A
:100C000084B5826084BD84B5816084BD85B5826011
:100C100085BD85B5816085BD80916E0081608093C2
:100C20006E0010928100809181008260809381002B
:100C3000809181008160809381008091800081603B
:100C4000809380008091B10084608093B100809196
:100C5000B00081608093B00080917A0084608093BE
:100C60007A0080917A00826080937A0080917A0085
:100C7000816080937A0080917A00806880937A0006
:100C80001092C10082E00E946C04E0917501F09125
:100C9000760182E08083E0917101F091720110820F
:100CA000E0917301F09174018FEC808310927D01CB
:100CB000E0917901F0917A0186E08083E0917701FB
:100CC000F0917801808180618083E0917701F091DB
:100CD0007801808188608083E0917701F0917801CC
:100CE000808180688083E0917701F0917801808134
:100CF0008F7D808360E081E00E94F00161E08DE003
:100D00000E94F00161E08CE00E94F00161E082E06D
:100D10000E94F00160E084E00E94F00191E4392E2D
:100D2000C2EBD0E00EE910E02AE8E22E20E0F22E3D
:100D3000AA24A394B12C40E0C42E40E0D42E3092DB
:100D40007C0080917A00806480937A0080917A00A0
:100D500086FDFCCF8090780090907900909264019D
:100D600080926301E1E0809115028111E0E0E1955C
:100D7000F0E0EE5FFD4F848980680E945E04B4015C
:100D8000990C880B990B0E94870820E030E040E81E
:100D90005AE30E943C0920E030E44CE955E40E940B
:100DA0003C0920E030E040E251E40E94E4072B01DE
:100DB0003C016AE271E085E691E00E947F0222E058
:100DC000B301A20185E691E00E94DA0269E371E0D5
:100DD00082E092E00E947F0222E0B301A20182E061
:100DE00092E00E94DA0220E030E040EF51E4C301DB
:100DF000B2010E94370918160CF05BC060E08DE06C
:100E00000E94C20161E08CE00E94C201E0911502E3
:100E1000E43008F04CC0E150F0E0EE5FFD4F848913
:100E200080680E945E0462E471E082E092E00E94C9
:100E30007F020E9446020E9464040E944602FE0154
:100E40008491F8019490F70184908820C9F0811171
:100E50000E949901E82DF0E0EE0FFF1FE458FF4FCC
:100E6000A591B4918C91982259F080916101909153
:100E700062019501281B390B3093620120936101B7
:100E8000809161019091620161E0019709F060E059
:100E900082E00E94C201C114D10409F450CF0E9423
:100EA000F600882309F44BCF0E94000048CFE3E00E
:100EB000B3CF61E08DE00E94C20160E08CE00E944F
:100EC000C201E0911502E43058F4E150F0E0EE5F29
:100ED000FD4F848980680E945E046CE471E0A5CFB8
:100EE000E3E0F4CF5058BB27AA270E948A070C944E
:100EF000FD080E94EF0838F00E94F60820F039F44F
:100F00009F3F19F426F40C94EC080EF4E095E7FBEF
:100F10000C94E608E92F0E940E0958F3BA176207ED
:100F200073078407950720F079F4A6F50C9430092F
:100F30000EF4E0950B2EBA2FA02D0B01B9019001F4
:100F40000C01CA01A0011124FF27591B99F0593F38
:100F500050F4503E68F11A16F040A22F232F342F80
:100F60004427585FF3CF469537952795A795F040CE
:100F70005395C9F77EF41F16BA0B620B730B840BE3
:100F8000BAF09150A1F0FF0FBB1F661F771F881F9B
:100F9000C2F70EC0BA0F621F731F841F48F48795F3
:100FA00077956795B795F7959E3F08F0B0CF9395E5
:100FB000880F08F09927EE0F9795879508950E945E
:100FC000C20808F481E008950E94F8070C94FD0817
:100FD0000E94F60858F00E94EF0840F029F45F3FA5
:100FE00029F00C94E60851110C9431090C94EC088A
:100FF0000E940E0968F39923B1F3552391F3951BD1
:10100000550BBB27AA2762177307840738F09F5F29
:101010005F4F220F331F441FAA1FA9F335D00E2E96
:101020003AF0E0E832D091505040E695001CCAF703
:101030002BD0FE2F29D0660F771F881FBB1F2617C6
:1010400037074807AB07B0E809F0BB0B802DBF019D
:10105000FF2793585F4F3AF09E3F510578F00C946C
:10106000E6080C9431095F3FE4F3983ED4F386958B
:1010700077956795B795F7959F5FC9F7880F911D8D
:101080009695879597F90895E1E0660F771F881F79
:10109000BB1F621773078407BA0720F0621B730B2C
:1010A000840BBA0BEE1F88F7E09508950E9416098D
:1010B00088F09F5798F0B92F9927B751B0F0E1F019
:1010C000660F771F881F991F1AF0BA95C9F714C0C9
:1010D000B13091F00E943009B1E008950C943009CC
:1010E000672F782F8827B85F39F0B93FCCF3869502
:1010F00077956795B395D9F73EF49095809570955F
:1011000061957F4F8F4F9F4F0895E89409C097FBDB
:101110003EF490958095709561957F4F8F4F9F4FCE
:101120009923A9F0F92F96E9BB279395F695879512
:1011300077956795B795F111F8CFFAF4BB0F11F4D5
:1011400060FF1BC06F5F7F4F8F4F9F4F16C088237C
:1011500011F096E911C0772321F09EE8872F762FB2
:1011600005C0662371F096E8862F70E060E02AF0F3
:101170009A95660F771F881FDAF7880F96958795DF
:1011800097F90895990F0008550FAA0BE0E8FEEFB4
:1011900016161706E807F907C0F012161306E4073B
:1011A000F50798F0621B730B840B950B39F40A2634
:1011B00061F0232B242B252B21F408950A2609F412
:1011C000A140A6958FEF811D811D089597F99F6716
:1011D00080E870E060E008959FEF80EC08950024BF
:1011E0000A941616170618060906089500240A948C
:1011F00012161306140605060895092E0394000C12
:1012000011F4882352F0BB0F40F4BF2B11F460FFA0
:1012100004C06F5F7F4F8F4F9F4F089557FD9058C9
:10122000440F551F59F05F3F71F04795880F97FBAA
:10123000991F61F09F3F79F0879508951216130664
:101240001406551FF2CF4695F1DF08C01616170693
:101250001806991FF1CF86957105610508940895C8
:10126000E894BB2766277727CB0197F908950E945A
:10127000C20808F48FEF08950E944F090C94FD08EE
:101280000E94EF0838F00E94F60820F0952311F034
:101290000C94E6080C94EC0811240C9431090E947B
:1012A0000E0970F3959FC1F3950F50E0551F629F93
:1012B000F001729FBB27F00DB11D639FAA27F00DAF
:1012C000B11DAA1F649F6627B00DA11D661F829FD6
:1012D0002227B00DA11D621F739FB00DA11D621FBB
:1012E000839FA00D611D221F749F3327A00D611DD8
:1012F000231F849F600D211D822F762F6A2F1124BA
:101300009F5750409AF0F1F088234AF0EE0FFF1FEC
:10131000BB1F661F771F881F91505040A9F79E3F43
:10132000510580F00C94E6080C9431095F3FE4F31A
:10133000983ED4F3869577956795B795F795E79599
:101340009F5FC1F7FE2B880F911D9695879597F9A2
:1013500008950E94C208880B990B0895A1E21A2EE5
:10136000AA1BBB1BFD010DC0AA1FBB1FEE1FFF1F49
:10137000A217B307E407F50720F0A21BB30BE40B99
:10138000F50B661F771F881F991F1A9469F76095E0
:101390007095809590959B01AC01BD01CF0108959A
:1013A000EE0FFF1F0590F491E02D0994F894FFCF04
:1013B000000000002C018C00B9007901EA00C8008F
:1013C000DC00000000000D058C007C027B026E61D9
:1013D0006E00696E66006F76660054656D706572AA
:1013E0006174757261203D200054656D7020433A30
:1013F000200054454D5020414C54410054454D501F
:08140000204E4F524D414C00FB
:00000001FF
